:1000000037110020130101803715024013058501C7
:1000100083250500B743000093835323B3E57500A0
:100020002320B50037150240130545008325050040
:10003000B7430000B3E575002320B5003715014034
:100040001305054083250500B70301F0938303FFE3
:10005000B3F57500B703B00893833300B3E57500BB
:100060002320B50037450140130585808325050011
:1000700093031034B3E575002320B50037450140E4
:100080001305C58083250500B72300009383C300B3
:10009000B3E575002320B5003725014013058540E1
:1000A000832505009303E0FFB3F575002320B50019
:1000B0003725014013054543832505009303700050
:1000C000B3E575002320B500372501401305054130
:1000D00083250500B703E000B3E575002320B500D4
:1000E000372501401305854083250500B7030E0021
:1000F00093831300B3E575002320B5003725014035
:10010000130585408325050093038000B3E5750042
:100110002320B500372501401305854083250500C0
:1001200093F58500E39805FE3725014013058540CA
:100130008325050093034000B3E575002320B50037
:1001400037250140130585408325050093F54500BB
:10015000E39805FE130540750304050063080400D9
:10016000EF00C010130515006FF01FFFEF004004F3
:10017000EF00800A3715014013050541832505006E
:1001800093031000B3E575002320B500EF00401481
:10019000371501401305054183250500B70301000C
:1001A000B3E575002320B500EF0080126FF01FFC4F
:1001B000130141FF232011002322A1002324B100B9
:1001C000372501401305854083250500B70340000E
:1001D00093E515002320B5003725014013050540A0
:1001E0008325050093F52500E38805FE37250140AA
:1001F0001305C544832505003705002013050501B7
:100200002320B500832581000325410083200100C0
:100210001301C100678000001301C1FF23201100FA
:100220003705002013050501EF00C025EF0040470A
:1002300013040002EF0080031304D000EF0000035A
:100240001304A000EF00800213040002EF0000027C
:100250001304D000EF0080011304A000EF000001A0
:10026000832001001301410067800000130101FF9A
:1002700023201100232271002324A1002326B10092
:1002800037450140130505808325050093F50508D2
:10029000E38E05FC930304003745014013054580B8
:1002A00023007500374501401305058083250500AF
:1002B00093F50504E38805FE8325C100032581002D
:1002C00083234100832001001301010167800000A6
:1002D0001301C1FE23201100232261002324710099
:1002E000232651002328A10037050020130505010E
:1002F000032305006314030013031000B753000029
:10030000938343E893020300334363003303730092
:100310009382F2FFE39C02FE1303F3FFE31E03FE4E
:10032000032501018322C1008323810003234100AF
:10033000832001001301410167800000130181FF48
:10034000232011002322610037B3320113035340ED
:100350001303F3FFE31E03FE032341008320010088
:100360001301810067800000130181FF2320110029
:100370002322610037B31E001303A3B91303F3FF55
:10038000E31E03FE032341008320010013018100CB
:1003900067800000130181FF2320110023226100E8
:1003A0001303A07D1303F3FFE31E03FE03234100A9
:1003B000832001001301810067800000130181FF89
:1003C000232011002322610037530000130343E868
:1003D0001303F3FFE31E03FE032341008320010008
:1003E0001301810067800000130181FF23201100A9
:1003F0002322610037930100130343891303F3FFA2
:10040000E31E03FE0323410083200100130181004A
:10041000678000001301C1FF2320110093860300B1
:1004200093F6060F93D6460013A7A600630A0700AB
:1004300093E6060313840600EFF05FE36F0000010C
:100440009386760313840600EFF05FE29386030041
:1004500093F6F60013A7A600630A070093E60603C7
:1004600013840600EFF09FE06F000001938676038F
:1004700013840600EFF09FDF832001001301410089
:1004800067800000130101FE232E1100232CF100D0
:10049000232AB10023288100232671002324510040
:1004A0002322410023206100130200009302000078
:1004B00093030000130400009307000003220500CB
:1004C000B7D39A3B938303A033047240B3327200D4
:1004D0006398020013020400938717006FF0DFFE99
:1004E0009387070337050020130545022300F50015
:1004F00093070000B7E3F5059383031033047240BC
:10050000B33272006398020013020400938717004D
:100510006FF0DFFE93870703130515002300F50036
:1005200093070000B79398009383036833047240E5
:10053000B33272006398020013020400938717001D
:100540006FF0DFFE93870703130515002300F50006
:1005500093070000B7430F009383032433047240D2
:10056000B3327200639802001302040093871700ED
:100570006FF0DFFE93870703130515002300F500D6
:1005800093070000B78301009383036A330472402A
:10059000B3327200639802001302040093871700BD
:1005A0006FF0DFFE93870703130515002300F500A6
:1005B00093070000B7230000938303713304724054
:1005C000B33272006398020013020400938717008D
:1005D0006FF0DFFE93870703130515002300F50076
:1005E000930700009303803E33047240B3327200DD
:1005F0006398020013020400938717006FF0DFFE78
:1006000093870703130515002300F50093070000E7
:100610009303400633047240B332720063980200C1
:1006200013020400938717006FF0DFFE9387070320
:10063000130515002300F500930700009303A000A5
:1006400033047240B3327200639802001302040054
:10065000938717006FF0DFFE9387070313051500DC
:100660002300F50093070000930702009387070318
:10067000130515002300F5000323010003224100A8
:10068000832281008323C1000324010183254101CA
:10069000832781018320C1011301010267800000CB
:1006A0001301C1FE232811002326B1002324A10039
:1006B0002322810023206100B705002093850502D5
:1006C00023A0050037050020130545021303000091
:1006D0009307A00003040500130200036300440411
:1006E000B7050020938505029302100023A0550052
:1006F0001305150013031300EFF05FB7E31CF3FCC1
:100700000323010003244100032581008325C10048
:10071000832001011301410167800000B70500201B
:100720009385050283A2050063980200130400026A
:1007300013029000630443006FF09FFB1304000357
:100740006FF01FFB130000001300000013000000F7
:0407500000000000A5
:1007540053414A4545562053414E4B4152414E2048
:0E076400434833325630303320554152540052
:00000001FF
